{
  "contractName": "DogPetMarket",
  "abi": [
    {
      "inputs": [],
      "stateMutability": "nonpayable",
      "type": "constructor"
    },
    {
      "anonymous": false,
      "inputs": [
        {
          "indexed": false,
          "internalType": "uint256",
          "name": "id",
          "type": "uint256"
        },
        {
          "indexed": false,
          "internalType": "string",
          "name": "name",
          "type": "string"
        },
        {
          "indexed": false,
          "internalType": "uint256",
          "name": "price",
          "type": "uint256"
        },
        {
          "indexed": false,
          "internalType": "address payable",
          "name": "owner",
          "type": "address"
        },
        {
          "indexed": false,
          "internalType": "bool",
          "name": "purchased",
          "type": "bool"
        }
      ],
      "name": "DogPetCreated",
      "type": "event"
    },
    {
      "anonymous": false,
      "inputs": [
        {
          "indexed": false,
          "internalType": "uint256",
          "name": "id",
          "type": "uint256"
        },
        {
          "indexed": false,
          "internalType": "string",
          "name": "name",
          "type": "string"
        },
        {
          "indexed": false,
          "internalType": "uint256",
          "name": "price",
          "type": "uint256"
        },
        {
          "indexed": false,
          "internalType": "address payable",
          "name": "owner",
          "type": "address"
        },
        {
          "indexed": false,
          "internalType": "bool",
          "name": "purchased",
          "type": "bool"
        }
      ],
      "name": "DogPetPurchased",
      "type": "event"
    },
    {
      "anonymous": false,
      "inputs": [
        {
          "indexed": false,
          "internalType": "uint256",
          "name": "id",
          "type": "uint256"
        },
        {
          "indexed": false,
          "internalType": "string",
          "name": "name",
          "type": "string"
        },
        {
          "indexed": false,
          "internalType": "uint256",
          "name": "price",
          "type": "uint256"
        },
        {
          "indexed": false,
          "internalType": "address payable",
          "name": "owner",
          "type": "address"
        },
        {
          "indexed": false,
          "internalType": "bool",
          "name": "purchased",
          "type": "bool"
        }
      ],
      "name": "ProductCreated",
      "type": "event"
    },
    {
      "anonymous": false,
      "inputs": [
        {
          "indexed": false,
          "internalType": "uint256",
          "name": "id",
          "type": "uint256"
        },
        {
          "indexed": false,
          "internalType": "string",
          "name": "name",
          "type": "string"
        },
        {
          "indexed": false,
          "internalType": "uint256",
          "name": "price",
          "type": "uint256"
        },
        {
          "indexed": false,
          "internalType": "address payable",
          "name": "owner",
          "type": "address"
        },
        {
          "indexed": false,
          "internalType": "bool",
          "name": "purchased",
          "type": "bool"
        }
      ],
      "name": "ProductPurchased",
      "type": "event"
    },
    {
      "inputs": [],
      "name": "dogPetCount",
      "outputs": [
        {
          "internalType": "uint256",
          "name": "",
          "type": "uint256"
        }
      ],
      "stateMutability": "view",
      "type": "function"
    },
    {
      "inputs": [
        {
          "internalType": "uint256",
          "name": "",
          "type": "uint256"
        }
      ],
      "name": "dogPets",
      "outputs": [
        {
          "internalType": "uint256",
          "name": "id",
          "type": "uint256"
        },
        {
          "internalType": "string",
          "name": "name",
          "type": "string"
        },
        {
          "internalType": "uint256",
          "name": "price",
          "type": "uint256"
        },
        {
          "internalType": "address payable",
          "name": "owner",
          "type": "address"
        },
        {
          "internalType": "bool",
          "name": "purchased",
          "type": "bool"
        }
      ],
      "stateMutability": "view",
      "type": "function"
    },
    {
      "inputs": [],
      "name": "owner",
      "outputs": [
        {
          "internalType": "address payable",
          "name": "",
          "type": "address"
        }
      ],
      "stateMutability": "view",
      "type": "function"
    },
    {
      "inputs": [],
      "name": "productCount",
      "outputs": [
        {
          "internalType": "uint256",
          "name": "",
          "type": "uint256"
        }
      ],
      "stateMutability": "view",
      "type": "function"
    },
    {
      "inputs": [
        {
          "internalType": "uint256",
          "name": "",
          "type": "uint256"
        }
      ],
      "name": "products",
      "outputs": [
        {
          "internalType": "uint256",
          "name": "id",
          "type": "uint256"
        },
        {
          "internalType": "string",
          "name": "name",
          "type": "string"
        },
        {
          "internalType": "uint256",
          "name": "price",
          "type": "uint256"
        },
        {
          "internalType": "address payable",
          "name": "owner",
          "type": "address"
        },
        {
          "internalType": "bool",
          "name": "purchased",
          "type": "bool"
        }
      ],
      "stateMutability": "view",
      "type": "function"
    },
    {
      "inputs": [
        {
          "internalType": "string",
          "name": "_name",
          "type": "string"
        },
        {
          "internalType": "uint256",
          "name": "_price",
          "type": "uint256"
        }
      ],
      "name": "createProduct",
      "outputs": [],
      "stateMutability": "nonpayable",
      "type": "function"
    },
    {
      "inputs": [
        {
          "internalType": "string",
          "name": "_name",
          "type": "string"
        },
        {
          "internalType": "uint256",
          "name": "_price",
          "type": "uint256"
        }
      ],
      "name": "createDogPet",
      "outputs": [],
      "stateMutability": "nonpayable",
      "type": "function"
    },
    {
      "inputs": [
        {
          "internalType": "uint256",
          "name": "_id",
          "type": "uint256"
        }
      ],
      "name": "purchaseProduct",
      "outputs": [],
      "stateMutability": "payable",
      "type": "function"
    },
    {
      "inputs": [
        {
          "internalType": "uint256",
          "name": "_id",
          "type": "uint256"
        }
      ],
      "name": "purchaseDogPet",
      "outputs": [],
      "stateMutability": "payable",
      "type": "function"
    }
  ],
  "bytecode": "0x60806040525f6001555f600255348015610017575f80fd5b50335f806101000a81548173ffffffffffffffffffffffffffffffffffffffff021916908373ffffffffffffffffffffffffffffffffffffffff1602179055506118c8806100645f395ff3fe608060405260043610610085575f3560e01c806388bc8c701161005857806388bc8c701461014f5780638da5cb5b1461016b578063a2206e7e14610195578063e0f6ef87146101bd578063e9300c6c146101e757610085565b806302234e271461008957806338e76a03146100b35780636c2f0fd6146100cf5780637acc0b201461010f575b5f80fd5b348015610094575f80fd5b5061009d61020f565b6040516100aa9190610ed8565b60405180910390f35b6100cd60048036038101906100c89190610f2c565b610215565b005b3480156100da575f80fd5b506100f560048036038101906100f09190610f2c565b6105ac565b60405161010695949392919061103a565b60405180910390f35b34801561011a575f80fd5b5061013560048036038101906101309190610f2c565b610690565b60405161014695949392919061103a565b60405180910390f35b61016960048036038101906101649190610f2c565b610774565b005b348015610176575f80fd5b5061017f610b0b565b60405161018c9190611092565b60405180910390f35b3480156101a0575f80fd5b506101bb60048036038101906101b691906111d7565b610b2e565b005b3480156101c8575f80fd5b506101d1610cf4565b6040516101de9190610ed8565b60405180910390f35b3480156101f2575f80fd5b5061020d600480360381019061020891906111d7565b610cfa565b005b60025481565b5f60035f8381526020019081526020015f206040518060a00160405290815f820154815260200160018201805461024b9061125e565b80601f01602080910402602001604051908101604052809291908181526020018280546102779061125e565b80156102c25780601f10610299576101008083540402835291602001916102c2565b820191905f5260205f20905b8154815290600101906020018083116102a557829003601f168201915b5050505050815260200160028201548152602001600382015f9054906101000a900473ffffffffffffffffffffffffffffffffffffffff1673ffffffffffffffffffffffffffffffffffffffff1673ffffffffffffffffffffffffffffffffffffffff1681526020016003820160149054906101000a900460ff16151515158152505090505f815f015111801561035e5750600154815f015111155b61039d576040517f08c379a0000000000000000000000000000000000000000000000000000000008152600401610394906112d8565b60405180910390fd5b8060800151156103e2576040517f08c379a00000000000000000000000000000000000000000000000000000000081526004016103d990611366565b60405180910390fd5b8060400151341015610429576040517f08c379a0000000000000000000000000000000000000000000000000000000008152600401610420906113ce565b60405180910390fd5b806060015173ffffffffffffffffffffffffffffffffffffffff166108fc3490811502906040515f60405180830381858888f19350505050158015610470573d5f803e3d5ffd5b5033816060019073ffffffffffffffffffffffffffffffffffffffff16908173ffffffffffffffffffffffffffffffffffffffff168152505060018160800190151590811515815250508060035f8481526020019081526020015f205f820151815f015560208201518160010190816104e99190611589565b50604082015181600201556060820151816003015f6101000a81548173ffffffffffffffffffffffffffffffffffffffff021916908373ffffffffffffffffffffffffffffffffffffffff16021790555060808201518160030160146101000a81548160ff0219169083151502179055509050507f79558d0d7d4d900e2f15c4cc0a665f1acdbe415e44de900ecdd1e5bf12b56f4e815f0151826020015183604001513360016040516105a095949392919061103a565b60405180910390a15050565b6004602052805f5260405f205f91509050805f0154908060010180546105d19061125e565b80601f01602080910402602001604051908101604052809291908181526020018280546105fd9061125e565b80156106485780601f1061061f57610100808354040283529160200191610648565b820191905f5260205f20905b81548152906001019060200180831161062b57829003601f168201915b505050505090806002015490806003015f9054906101000a900473ffffffffffffffffffffffffffffffffffffffff16908060030160149054906101000a900460ff16905085565b6003602052805f5260405f205f91509050805f0154908060010180546106b59061125e565b80601f01602080910402602001604051908101604052809291908181526020018280546106e19061125e565b801561072c5780601f106107035761010080835404028352916020019161072c565b820191905f5260205f20905b81548152906001019060200180831161070f57829003601f168201915b505050505090806002015490806003015f9054906101000a900473ffffffffffffffffffffffffffffffffffffffff16908060030160149054906101000a900460ff16905085565b5f60045f8381526020019081526020015f206040518060a00160405290815f82015481526020016001820180546107aa9061125e565b80601f01602080910402602001604051908101604052809291908181526020018280546107d69061125e565b80156108215780601f106107f857610100808354040283529160200191610821565b820191905f5260205f20905b81548152906001019060200180831161080457829003601f168201915b5050505050815260200160028201548152602001600382015f9054906101000a900473ffffffffffffffffffffffffffffffffffffffff1673ffffffffffffffffffffffffffffffffffffffff1673ffffffffffffffffffffffffffffffffffffffff1681526020016003820160149054906101000a900460ff16151515158152505090505f815f01511180156108bd5750600254815f015111155b6108fc576040517f08c379a00000000000000000000000000000000000000000000000000000000081526004016108f3906116a2565b60405180910390fd5b806080015115610941576040517f08c379a000000000000000000000000000000000000000000000000000000000815260040161093890611730565b60405180910390fd5b8060400151341015610988576040517f08c379a000000000000000000000000000000000000000000000000000000000815260040161097f906113ce565b60405180910390fd5b806060015173ffffffffffffffffffffffffffffffffffffffff166108fc3490811502906040515f60405180830381858888f193505050501580156109cf573d5f803e3d5ffd5b5033816060019073ffffffffffffffffffffffffffffffffffffffff16908173ffffffffffffffffffffffffffffffffffffffff168152505060018160800190151590811515815250508060045f8481526020019081526020015f205f820151815f01556020820151816001019081610a489190611589565b50604082015181600201556060820151816003015f6101000a81548173ffffffffffffffffffffffffffffffffffffffff021916908373ffffffffffffffffffffffffffffffffffffffff16021790555060808201518160030160146101000a81548160ff0219169083151502179055509050507f3f948066ddcee0cae0e5091ce7edbecc44d47cec029c9186111a794a7498d974815f015182602001518360400151336001604051610aff95949392919061103a565b60405180910390a15050565b5f8054906101000a900473ffffffffffffffffffffffffffffffffffffffff1681565b5f825111610b71576040517f08c379a0000000000000000000000000000000000000000000000000000000008152600401610b6890611798565b60405180910390fd5b5f8111610bb3576040517f08c379a0000000000000000000000000000000000000000000000000000000008152600401610baa90611800565b60405180910390fd5b60025f815480929190610bc59061184b565b91905055506040518060a0016040528060025481526020018381526020018281526020013373ffffffffffffffffffffffffffffffffffffffff1681526020015f151581525060045f60025481526020019081526020015f205f820151815f01556020820151816001019081610c3b9190611589565b50604082015181600201556060820151816003015f6101000a81548173ffffffffffffffffffffffffffffffffffffffff021916908373ffffffffffffffffffffffffffffffffffffffff16021790555060808201518160030160146101000a81548160ff0219169083151502179055509050507f6c8e8963a275703eb88f82cecc2c09fe07de3f65216a80cb8105d950207cd8f26002548383335f604051610ce895949392919061103a565b60405180910390a15050565b60015481565b5f825111610d3d576040517f08c379a0000000000000000000000000000000000000000000000000000000008152600401610d3490611798565b60405180910390fd5b5f8111610d7f576040517f08c379a0000000000000000000000000000000000000000000000000000000008152600401610d7690611800565b60405180910390fd5b60015f815480929190610d919061184b565b91905055506040518060a0016040528060015481526020018381526020018281526020013373ffffffffffffffffffffffffffffffffffffffff1681526020015f151581525060035f60015481526020019081526020015f205f820151815f01556020820151816001019081610e079190611589565b50604082015181600201556060820151816003015f6101000a81548173ffffffffffffffffffffffffffffffffffffffff021916908373ffffffffffffffffffffffffffffffffffffffff16021790555060808201518160030160146101000a81548160ff0219169083151502179055509050507fbc59c0c8165864dcceb377dd07d8f431d4303f8e501cb0a0374a10cc68d718366001548383335f604051610eb495949392919061103a565b60405180910390a15050565b5f819050919050565b610ed281610ec0565b82525050565b5f602082019050610eeb5f830184610ec9565b92915050565b5f604051905090565b5f80fd5b5f80fd5b610f0b81610ec0565b8114610f15575f80fd5b50565b5f81359050610f2681610f02565b92915050565b5f60208284031215610f4157610f40610efa565b5b5f610f4e84828501610f18565b91505092915050565b5f81519050919050565b5f82825260208201905092915050565b5f5b83811015610f8e578082015181840152602081019050610f73565b5f8484015250505050565b5f601f19601f8301169050919050565b5f610fb382610f57565b610fbd8185610f61565b9350610fcd818560208601610f71565b610fd681610f99565b840191505092915050565b5f73ffffffffffffffffffffffffffffffffffffffff82169050919050565b5f61100a82610fe1565b9050919050565b61101a81611000565b82525050565b5f8115159050919050565b61103481611020565b82525050565b5f60a08201905061104d5f830188610ec9565b818103602083015261105f8187610fa9565b905061106e6040830186610ec9565b61107b6060830185611011565b611088608083018461102b565b9695505050505050565b5f6020820190506110a55f830184611011565b92915050565b5f80fd5b5f80fd5b7f4e487b71000000000000000000000000000000000000000000000000000000005f52604160045260245ffd5b6110e982610f99565b810181811067ffffffffffffffff82111715611108576111076110b3565b5b80604052505050565b5f61111a610ef1565b905061112682826110e0565b919050565b5f67ffffffffffffffff821115611145576111446110b3565b5b61114e82610f99565b9050602081019050919050565b828183375f83830152505050565b5f61117b6111768461112b565b611111565b905082815260208101848484011115611197576111966110af565b5b6111a284828561115b565b509392505050565b5f82601f8301126111be576111bd6110ab565b5b81356111ce848260208601611169565b91505092915050565b5f80604083850312156111ed576111ec610efa565b5b5f83013567ffffffffffffffff81111561120a57611209610efe565b5b611216858286016111aa565b925050602061122785828601610f18565b9150509250929050565b7f4e487b71000000000000000000000000000000000000000000000000000000005f52602260045260245ffd5b5f600282049050600182168061127557607f821691505b60208210810361128857611287611231565b5b50919050565b7f496e76616c69642070726f6475637420696400000000000000000000000000005f82015250565b5f6112c2601283610f61565b91506112cd8261128e565b602082019050919050565b5f6020820190508181035f8301526112ef816112b6565b9050919050565b7f50726f647563742068617320616c7265616479206265656e20707572636861735f8201527f6564000000000000000000000000000000000000000000000000000000000000602082015250565b5f611350602283610f61565b915061135b826112f6565b604082019050919050565b5f6020820190508181035f83015261137d81611344565b9050919050565b7f496e73756666696369656e742066756e647300000000000000000000000000005f82015250565b5f6113b8601283610f61565b91506113c382611384565b602082019050919050565b5f6020820190508181035f8301526113e5816113ac565b9050919050565b5f819050815f5260205f209050919050565b5f6020601f8301049050919050565b5f82821b905092915050565b5f600883026114487fffffffffffffffffffffffffffffffffffffffffffffffffffffffffffffffff8261140d565b611452868361140d565b95508019841693508086168417925050509392505050565b5f819050919050565b5f61148d61148861148384610ec0565b61146a565b610ec0565b9050919050565b5f819050919050565b6114a683611473565b6114ba6114b282611494565b848454611419565b825550505050565b5f90565b6114ce6114c2565b6114d981848461149d565b505050565b5b818110156114fc576114f15f826114c6565b6001810190506114df565b5050565b601f82111561154157611512816113ec565b61151b846113fe565b8101602085101561152a578190505b61153e611536856113fe565b8301826114de565b50505b505050565b5f82821c905092915050565b5f6115615f1984600802611546565b1980831691505092915050565b5f6115798383611552565b9150826002028217905092915050565b61159282610f57565b67ffffffffffffffff8111156115ab576115aa6110b3565b5b6115b5825461125e565b6115c0828285611500565b5f60209050601f8311600181146115f1575f84156115df578287015190505b6115e9858261156e565b865550611650565b601f1984166115ff866113ec565b5f5b8281101561162657848901518255600182019150602085019450602081019050611601565b86831015611643578489015161163f601f891682611552565b8355505b6001600288020188555050505b505050505050565b7f496e76616c696420646f672070657420696400000000000000000000000000005f82015250565b5f61168c601283610f61565b915061169782611658565b602082019050919050565b5f6020820190508181035f8301526116b981611680565b9050919050565b7f446f67207065742068617320616c7265616479206265656e20707572636861735f8201527f6564000000000000000000000000000000000000000000000000000000000000602082015250565b5f61171a602283610f61565b9150611725826116c0565b604082019050919050565b5f6020820190508181035f8301526117478161170e565b9050919050565b7f4e616d652063616e6e6f7420626520656d7074790000000000000000000000005f82015250565b5f611782601483610f61565b915061178d8261174e565b602082019050919050565b5f6020820190508181035f8301526117af81611776565b9050919050565b7f5072696365206d7573742062652067726561746572207468616e2030000000005f82015250565b5f6117ea601c83610f61565b91506117f5826117b6565b602082019050919050565b5f6020820190508181035f830152611817816117de565b9050919050565b7f4e487b71000000000000000000000000000000000000000000000000000000005f52601160045260245ffd5b5f61185582610ec0565b91507fffffffffffffffffffffffffffffffffffffffffffffffffffffffffffffffff82036118875761188661181e565b5b60018201905091905056fea26469706673582212207ed47433c3e0a5ace7d38f0641c7592262bd209d3d34f31d9bb32c7d7a8b50d364736f6c63430008150033",
  "immutableReferences": {},
  "source": "// SPDX-License-Identifier: MIT\r\npragma solidity ^0.8.0;\r\n\r\ncontract DogPetMarket {\r\n    address payable public owner;\r\n    uint256 public productCount = 0;\r\n    uint256 public dogPetCount = 0;\r\n\r\n    struct Product {\r\n        uint256 id;\r\n        string name;\r\n        uint256 price;\r\n        address payable owner;\r\n        bool purchased;\r\n    }\r\n\r\n    struct DogPet {\r\n        uint256 id;\r\n        string name;\r\n        uint256 price;\r\n        address payable owner;\r\n        bool purchased;\r\n    }\r\n\r\n    mapping(uint256 => Product) public products;\r\n    mapping(uint256 => DogPet) public dogPets;\r\n\r\n    event ProductCreated(\r\n        uint256 id,\r\n        string name,\r\n        uint256 price,\r\n        address payable owner,\r\n        bool purchased\r\n    );\r\n\r\n    event DogPetCreated(\r\n        uint256 id,\r\n        string name,\r\n        uint256 price,\r\n        address payable owner,\r\n        bool purchased\r\n    );\r\n\r\n    event ProductPurchased(\r\n        uint256 id,\r\n        string name,\r\n        uint256 price,\r\n        address payable owner,\r\n        bool purchased\r\n    );\r\n\r\n    event DogPetPurchased(\r\n        uint256 id,\r\n        string name,\r\n        uint256 price,\r\n        address payable owner,\r\n        bool purchased\r\n    );\r\n\r\n    constructor() {\r\n        owner = payable(msg.sender);\r\n    }\r\n\r\n    function createProduct(string memory _name, uint256 _price) public {\r\n        require(bytes(_name).length > 0, \"Name cannot be empty\");\r\n        require(_price > 0, \"Price must be greater than 0\");\r\n\r\n        productCount++;\r\n        products[productCount] = Product(\r\n            productCount,\r\n            _name,\r\n            _price,\r\n            payable(msg.sender),\r\n            false\r\n        );\r\n\r\n        emit ProductCreated(productCount, _name, _price, payable(msg.sender), false);\r\n    }\r\n\r\n    function createDogPet(string memory _name, uint256 _price) public {\r\n        require(bytes(_name).length > 0, \"Name cannot be empty\");\r\n        require(_price > 0, \"Price must be greater than 0\");\r\n\r\n        dogPetCount++;\r\n        dogPets[dogPetCount] = DogPet(\r\n            dogPetCount,\r\n            _name,\r\n            _price,\r\n            payable(msg.sender),\r\n            false\r\n        );\r\n\r\n        emit DogPetCreated(dogPetCount, _name, _price, payable(msg.sender), false);\r\n    }\r\n\r\n    function purchaseProduct(uint256 _id) public payable {\r\n        Product memory _product = products[_id];\r\n        require(_product.id > 0 && _product.id <= productCount, \"Invalid product id\");\r\n        require(!_product.purchased, \"Product has already been purchased\");\r\n        require(msg.value >= _product.price, \"Insufficient funds\");\r\n\r\n        _product.owner.transfer(msg.value);\r\n        _product.owner = payable(msg.sender);\r\n        _product.purchased = true;\r\n        products[_id] = _product;\r\n\r\n        emit ProductPurchased(_product.id, _product.name, _product.price, payable(msg.sender), true);\r\n    }\r\n\r\n    function purchaseDogPet(uint256 _id) public payable {\r\n        DogPet memory _dogPet = dogPets[_id];\r\n        require(_dogPet.id > 0 && _dogPet.id <= dogPetCount, \"Invalid dog pet id\");\r\n        require(!_dogPet.purchased, \"Dog pet has already been purchased\");\r\n        require(msg.value >= _dogPet.price, \"Insufficient funds\");\r\n\r\n        _dogPet.owner.transfer(msg.value);\r\n        _dogPet.owner = payable(msg.sender);\r\n        _dogPet.purchased = true;\r\n        dogPets[_id] = _dogPet;\r\n\r\n        emit DogPetPurchased(_dogPet.id, _dogPet.name, _dogPet.price, payable(msg.sender), true);\r\n    }\r\n}\r\n",
  "sourcePath": "E:\\Capstone-IBC\\cielcanine\\contracts\\DogPetMarket.sol",
  "compiler": {
    "name": "solc",
    "version": "0.8.21+commit.d9974bed.Emscripten.clang"
  },
  "schemaVersion": "3.4.16",
  "updatedAt": "2024-02-13T17:33:48.324Z",
  "devdoc": {
    "kind": "dev",
    "methods": {},
    "version": 1
  },
  "userdoc": {
    "kind": "user",
    "methods": {},
    "version": 1
  }
}