{
  "contractName": "sample",
  "abi": [
    {
      "anonymous": false,
      "inputs": [
        {
          "indexed": false,
          "internalType": "string",
          "name": "message",
          "type": "string"
        }
      ],
      "name": "MessageLogged",
      "type": "event"
    },
    {
      "inputs": [],
      "name": "logHelloWorld",
      "outputs": [],
      "stateMutability": "nonpayable",
      "type": "function"
    }
  ],
  "bytecode": "0x608060405234801561000f575f80fd5b5061010f8061001d5f395ff3fe6080604052348015600e575f80fd5b50600436106026575f3560e01c8063faa0cb0b14602a575b5f80fd5b60306032565b005b7fe511a200aec345912a2e8e4d8f090f7e85edad39199e55e00f7a493016897e94604051605d9060bd565b60405180910390a1565b5f82825260208201905092915050565b7f48656c6c6f20576f726c642100000000000000000000000000000000000000005f82015250565b5f60a9600c836067565b915060b2826077565b602082019050919050565b5f6020820190508181035f83015260d281609f565b905091905056fea26469706673582212201f8836c01943fd950e6d8853e1c442f88051eb96b06b36128233c8457ba6761064736f6c63430008150033",
  "immutableReferences": {},
  "source": "// SPDX-License-Identifier: MIT \r\n\r\npragma solidity ^0.8.0;\r\n\r\n\r\n\r\n\r\ncontract sample{\r\n    event MessageLogged(string message);\r\n\r\n    function logHelloWorld() public {\r\n        emit MessageLogged(\"Hello World!\");\r\n    }\r\n}",
  "sourcePath": "E:\\Capstone-IBC\\cielcanine\\contracts\\contract.sol",
  "compiler": {
    "name": "solc",
    "version": "0.8.21+commit.d9974bed.Emscripten.clang"
  },
  "schemaVersion": "3.4.16",
  "updatedAt": "2024-02-13T17:33:48.354Z",
  "devdoc": {
    "kind": "dev",
    "methods": {},
    "version": 1
  },
  "userdoc": {
    "kind": "user",
    "methods": {},
    "version": 1
  }
}